{
  "contractName": "SimpleStorage",
  "abi": [
    {
      "constant": true,
      "inputs": [],
      "name": "books_count",
      "outputs": [
        {
          "name": "",
          "type": "uint256"
        }
      ],
      "payable": false,
      "stateMutability": "view",
      "type": "function"
    },
    {
      "constant": true,
      "inputs": [
        {
          "name": "",
          "type": "uint256"
        }
      ],
      "name": "books_list",
      "outputs": [
        {
          "name": "id",
          "type": "uint256"
        },
        {
          "name": "name",
          "type": "string"
        },
        {
          "name": "kind",
          "type": "uint8"
        },
        {
          "name": "count",
          "type": "uint256"
        },
        {
          "name": "remain_count",
          "type": "uint256"
        },
        {
          "name": "floor_number",
          "type": "uint256"
        },
        {
          "name": "bookshelf_num",
          "type": "string"
        }
      ],
      "payable": false,
      "stateMutability": "view",
      "type": "function"
    },
    {
      "constant": false,
      "inputs": [
        {
          "name": "Name",
          "type": "string"
        },
        {
          "name": "Kind",
          "type": "uint8"
        },
        {
          "name": "Count",
          "type": "uint256"
        },
        {
          "name": "Floor_number",
          "type": "uint256"
        },
        {
          "name": "Bookshelf_num",
          "type": "string"
        }
      ],
      "name": "add_books",
      "outputs": [
        {
          "name": "",
          "type": "bool"
        }
      ],
      "payable": false,
      "stateMutability": "nonpayable",
      "type": "function"
    },
    {
      "constant": false,
      "inputs": [
        {
          "name": "id",
          "type": "uint256"
        },
        {
          "name": "num",
          "type": "uint256"
        }
      ],
      "name": "add_id_count",
      "outputs": [
        {
          "name": "",
          "type": "bool"
        }
      ],
      "payable": false,
      "stateMutability": "nonpayable",
      "type": "function"
    },
    {
      "constant": false,
      "inputs": [
        {
          "name": "Name",
          "type": "string"
        },
        {
          "name": "num",
          "type": "uint256"
        }
      ],
      "name": "add_name_count",
      "outputs": [
        {
          "name": "",
          "type": "bool"
        }
      ],
      "payable": false,
      "stateMutability": "nonpayable",
      "type": "function"
    },
    {
      "constant": false,
      "inputs": [
        {
          "name": "id",
          "type": "uint256"
        },
        {
          "name": "floor",
          "type": "uint256"
        }
      ],
      "name": "move_id_floor",
      "outputs": [
        {
          "name": "",
          "type": "bool"
        }
      ],
      "payable": false,
      "stateMutability": "nonpayable",
      "type": "function"
    },
    {
      "constant": false,
      "inputs": [
        {
          "name": "id",
          "type": "uint256"
        },
        {
          "name": "Bookshelf_num",
          "type": "string"
        }
      ],
      "name": "move_id_bookshelf",
      "outputs": [
        {
          "name": "",
          "type": "bool"
        }
      ],
      "payable": false,
      "stateMutability": "nonpayable",
      "type": "function"
    },
    {
      "constant": false,
      "inputs": [
        {
          "name": "id",
          "type": "uint256"
        }
      ],
      "name": "lend_id",
      "outputs": [
        {
          "name": "",
          "type": "bool"
        }
      ],
      "payable": false,
      "stateMutability": "nonpayable",
      "type": "function"
    },
    {
      "constant": false,
      "inputs": [
        {
          "name": "Name",
          "type": "string"
        }
      ],
      "name": "lend_name",
      "outputs": [
        {
          "name": "",
          "type": "bool"
        }
      ],
      "payable": false,
      "stateMutability": "nonpayable",
      "type": "function"
    },
    {
      "constant": false,
      "inputs": [
        {
          "name": "id",
          "type": "uint256"
        }
      ],
      "name": "return_id",
      "outputs": [
        {
          "name": "",
          "type": "bool"
        }
      ],
      "payable": false,
      "stateMutability": "nonpayable",
      "type": "function"
    },
    {
      "constant": false,
      "inputs": [
        {
          "name": "Name",
          "type": "string"
        }
      ],
      "name": "return_name",
      "outputs": [
        {
          "name": "",
          "type": "bool"
        }
      ],
      "payable": false,
      "stateMutability": "nonpayable",
      "type": "function"
    },
    {
      "constant": true,
      "inputs": [
        {
          "name": "id",
          "type": "uint256"
        }
      ],
      "name": "find_id",
      "outputs": [
        {
          "name": "",
          "type": "uint256"
        },
        {
          "name": "",
          "type": "string"
        },
        {
          "name": "",
          "type": "uint8"
        },
        {
          "name": "",
          "type": "uint256"
        },
        {
          "name": "",
          "type": "uint256"
        },
        {
          "name": "",
          "type": "uint256"
        },
        {
          "name": "",
          "type": "string"
        }
      ],
      "payable": false,
      "stateMutability": "view",
      "type": "function"
    },
    {
      "constant": true,
      "inputs": [
        {
          "name": "Name",
          "type": "string"
        }
      ],
      "name": "find_name",
      "outputs": [
        {
          "name": "",
          "type": "uint256"
        },
        {
          "name": "",
          "type": "string"
        },
        {
          "name": "",
          "type": "uint8"
        },
        {
          "name": "",
          "type": "uint256"
        },
        {
          "name": "",
          "type": "uint256"
        },
        {
          "name": "",
          "type": "uint256"
        },
        {
          "name": "",
          "type": "string"
        }
      ],
      "payable": false,
      "stateMutability": "view",
      "type": "function"
    },
    {
      "constant": true,
      "inputs": [
        {
          "name": "id",
          "type": "uint256"
        },
        {
          "name": "book_num",
          "type": "uint256"
        }
      ],
      "name": "find_id_num",
      "outputs": [
        {
          "name": "",
          "type": "bool"
        },
        {
          "name": "",
          "type": "bool"
        },
        {
          "name": "",
          "type": "address"
        }
      ],
      "payable": false,
      "stateMutability": "view",
      "type": "function"
    },
    {
      "constant": true,
      "inputs": [],
      "name": "All_books_num",
      "outputs": [
        {
          "name": "",
          "type": "uint256"
        }
      ],
      "payable": false,
      "stateMutability": "view",
      "type": "function"
    },
    {
      "constant": false,
      "inputs": [
        {
          "name": "x",
          "type": "uint256"
        }
      ],
      "name": "set",
      "outputs": [],
      "payable": false,
      "stateMutability": "nonpayable",
      "type": "function"
    },
    {
      "constant": true,
      "inputs": [],
      "name": "get",
      "outputs": [
        {
          "name": "",
          "type": "uint256"
        }
      ],
      "payable": false,
      "stateMutability": "view",
      "type": "function"
    }
  ],
  "bytecode": "0x60806040526000805534801561001457600080fd5b50611d98806100246000396000f3006080604052600436106100f1576000357c0100000000000000000000000000000000000000000000000000000000900463ffffffff168063042febe6146100f65780630ff9964114610121578063292fafbe146102645780632d10b9a4146102f15780632d321e2f146103405780633342233f146103c15780633dd360bc1461044c578063539212b61461053457806360fe47b1146105835780636d4ce63c146105b0578063871a6662146105db57806397f0e3341461065c578063ba6e9e9814610687578063c8997c91146107ca578063d58a577a14610949578063eef362ce1461098e578063fffdeec5146109d3575b600080fd5b34801561010257600080fd5b5061010b610a5e565b6040518082815260200191505060405180910390f35b34801561012d57600080fd5b5061014c60048036038101908080359060200190929190505050610a67565b604051808881526020018060200187600581111561016657fe5b60ff16815260200186815260200185815260200184815260200180602001838103835289818151815260200191508051906020019080838360005b838110156101bc5780820151818401526020810190506101a1565b50505050905090810190601f1680156101e95780820380516001836020036101000a031916815260200191505b50838103825284818151815260200191508051906020019080838360005b83811015610222578082015181840152602081019050610207565b50505050905090810190601f16801561024f5780820380516001836020036101000a031916815260200191505b50995050505050505050505060405180910390f35b34801561027057600080fd5b506102996004803603810190808035906020019092919080359060200190929190505050610cca565b6040518084151515158152602001831515151581526020018273ffffffffffffffffffffffffffffffffffffffff1673ffffffffffffffffffffffffffffffffffffffff168152602001935050505060405180910390f35b3480156102fd57600080fd5b506103266004803603810190808035906020019092919080359060200190929190505050610d2b565b604051808215151515815260200191505060405180910390f35b34801561034c57600080fd5b506103a7600480360381019080803590602001908201803590602001908080601f0160208091040260200160405190810160405280939291908181526020018383808284378201915050505050509192919290505050610d93565b604051808215151515815260200191505060405180910390f35b3480156103cd57600080fd5b50610432600480360381019080803590602001908201803590602001908080601f016020809104026020016040519081016040528093929190818152602001838380828437820191505050505050919291929080359060200190929190505050610faa565b604051808215151515815260200191505060405180910390f35b34801561045857600080fd5b5061051a600480360381019080803590602001908201803590602001908080601f0160208091040260200160405190810160405280939291908181526020018383808284378201915050505050509192919290803560ff1690602001909291908035906020019092919080359060200190929190803590602001908201803590602001908080601f01602080910402602001604051908101604052809392919081815260200183838082843782019150505050505091929192905050506111c6565b604051808215151515815260200191505060405180910390f35b34801561054057600080fd5b5061056960048036038101908080359060200190929190803590602001909291905050506114bc565b604051808215151515815260200191505060405180910390f35b34801561058f57600080fd5b506105ae60048036038101908080359060200190929190505050611501565b005b3480156105bc57600080fd5b506105c561150b565b6040518082815260200191505060405180910390f35b3480156105e757600080fd5b50610642600480360381019080803590602001908201803590602001908080601f0160208091040260200160405190810160405280939291908181526020018383808284378201915050505050509192919290505050611515565b604051808215151515815260200191505060405180910390f35b34801561066857600080fd5b5061067161172c565b6040518082815260200191505060405180910390f35b34801561069357600080fd5b506106b260048036038101908080359060200190929190505050611732565b60405180888152602001806020018760058111156106cc57fe5b60ff16815260200186815260200185815260200184815260200180602001838103835289818151815260200191508051906020019080838360005b83811015610722578082015181840152602081019050610707565b50505050905090810190601f16801561074f5780820380516001836020036101000a031916815260200191505b50838103825284818151815260200191508051906020019080838360005b8381101561078857808201518184015260208101905061076d565b50505050905090810190601f1680156107b55780820380516001836020036101000a031916815260200191505b50995050505050505050505060405180910390f35b3480156107d657600080fd5b50610831600480360381019080803590602001908201803590602001908080601f01602080910402602001604051908101604052809392919081815260200183838082843782019150505050505091929192905050506118b1565b604051808881526020018060200187600581111561084b57fe5b60ff16815260200186815260200185815260200184815260200180602001838103835289818151815260200191508051906020019080838360005b838110156108a1578082015181840152602081019050610886565b50505050905090810190601f1680156108ce5780820380516001836020036101000a031916815260200191505b50838103825284818151815260200191508051906020019080838360005b838110156109075780820151818401526020810190506108ec565b50505050905090810190601f1680156109345780820380516001836020036101000a031916815260200191505b50995050505050505050505060405180910390f35b34801561095557600080fd5b5061097460048036038101908080359060200190929190505050611b29565b604051808215151515815260200191505060405180910390f35b34801561099a57600080fd5b506109b960048036038101908080359060200190929190505050611ba6565b604051808215151515815260200191505060405180910390f35b3480156109df57600080fd5b50610a4460048036038101908080359060200190929190803590602001908201803590602001908080601f0160208091040260200160405190810160405280939291908181526020018383808284378201915050505050509192919290505050611c10565b604051808215151515815260200191505060405180910390f35b60008054905090565b60006060600080600080606060005488101515610acc5760006005600080600084945060206040519081016040528060008152509392919082925081915080905060206040519081016040528060008152509650965096509650965096509650610cbf565b6001600089815260200190815260200160002060000154600160008a8152602001908152602001600020600101600160008b815260200190815260200160002060020160009054906101000a900460ff16600160008c815260200190815260200160002060030154600160008d815260200190815260200160002060040154600160008e815260200190815260200160002060050154600160008f8152602001908152602001600020600601858054600181600116156101000203166002900480601f016020809104026020016040519081016040528092919081815260200182805460018160011615610100020316600290048015610c0d5780601f10610be257610100808354040283529160200191610c0d565b820191906000526020600020905b815481529060010190602001808311610bf057829003601f168201915b50505050509550808054600181600116156101000203166002900480601f016020809104026020016040519081016040528092919081815260200182805460018160011615610100020316600290048015610ca95780601f10610c7e57610100808354040283529160200191610ca9565b820191906000526020600020905b815481529060010190602001808311610c8c57829003601f168201915b5050505050905096509650965096509650965096505b919395979092949650565b6000806000805485101515610ce9576000806000925092509250610d24565b600160008681526020019081526020016000206003015484101515610d18576000806000925092509250610d24565b60018060009250925092505b9250925092565b6000805483101515610d405760009050610d8d565b816001600085815260200190815260200160002060030160008282540192505081905550816001600085815260200190815260200160002060040160008282540192505081905550600190505b92915050565b600080600090505b600054811015610f9f57826040516020018082805190602001908083835b602083101515610dde5780518252602082019150602081019050602083039250610db9565b6001836020036101000a0380198251168184511680821785525050505050509050019150506040516020818303038152906040526040518082805190602001908083835b602083101515610e475780518252602082019150602081019050602083039250610e22565b6001836020036101000a038019825116818451168082178552505050505050905001915050604051809103902060001916600160008381526020019081526020016000206001016040516020018082805460018160011615610100020316600290048015610eec5780601f10610eca576101008083540402835291820191610eec565b820191906000526020600020905b815481529060010190602001808311610ed8575b50509150506040516020818303038152906040526040518082805190602001908083835b602083101515610f355780518252602082019150602081019050602083039250610f10565b6001836020036101000a0380198251168184511680821785525050505050509050019150506040518091039020600019161415610f9257610f8b6001600083815260200190815260200160002060000154611ba6565b9150610fa4565b8080600101915050610d9b565b600091505b50919050565b600080600090505b6000548110156111ba57836040516020018082805190602001908083835b602083101515610ff55780518252602082019150602081019050602083039250610fd0565b6001836020036101000a0380198251168184511680821785525050505050509050019150506040516020818303038152906040526040518082805190602001908083835b60208310151561105e5780518252602082019150602081019050602083039250611039565b6001836020036101000a0380198251168184511680821785525050505050509050019150506040518091039020600019166001600083815260200190815260200160002060010160405160200180828054600181600116156101000203166002900480156111035780601f106110e1576101008083540402835291820191611103565b820191906000526020600020905b8154815290600101906020018083116110ef575b50509150506040516020818303038152906040526040518082805190602001908083835b60208310151561114c5780518252602082019150602081019050602083039250611127565b6001836020036101000a03801982511681845116808217855250505050505090500191505060405180910390206000191614156111ad576111a3600160008381526020019081526020016000206000015484610d2b565b50600191506111bf565b8080600101915050610fb2565b600091505b5092915050565b60008060009050600090505b6000548110156113b957866040516020018082805190602001908083835b60208310151561121557805182526020820191506020810190506020830392506111f0565b6001836020036101000a0380198251168184511680821785525050505050509050019150506040516020818303038152906040526040518082805190602001908083835b60208310151561127e5780518252602082019150602081019050602083039250611259565b6001836020036101000a0380198251168184511680821785525050505050509050019150506040518091039020600019166001600083815260200190815260200160002060010160405160200180828054600181600116156101000203166002900480156113235780601f10611301576101008083540402835291820191611323565b820191906000526020600020905b81548152906001019060200180831161130f575b50509150506040516020818303038152906040526040518082805190602001908083835b60208310151561136c5780518252602082019150602081019050602083039250611347565b6001836020036101000a03801982511681845116808217855250505050505090500191505060405180910390206000191614156113ac57600091506114b2565b80806001019150506111d2565b60e06040519081016040528060005481526020018881526020018760058111156113df57fe5b8152602001868152602001868152602001858152602001848152506001600080548152602001908152602001600020600082015181600001556020820151816001019080519060200190611434929190611c47565b5060408201518160020160006101000a81548160ff0219169083600581111561145957fe5b0217905550606082015181600301556080820151816004015560a0820151816005015560c0820151816006019080519060200190611498929190611c47565b509050506000808154809291906001019190505550600191505b5095945050505050565b600060058211806114cd5750600082105b156114db57600090506114fb565b816001600085815260200190815260200160002060050181905550600190505b92915050565b8060028190555050565b6000600254905090565b600080600090505b60005481101561172157826040516020018082805190602001908083835b602083101515611560578051825260208201915060208101905060208303925061153b565b6001836020036101000a0380198251168184511680821785525050505050509050019150506040516020818303038152906040526040518082805190602001908083835b6020831015156115c957805182526020820191506020810190506020830392506115a4565b6001836020036101000a03801982511681845116808217855250505050505090500191505060405180910390206000191660016000838152602001908152602001600020600101604051602001808280546001816001161561010002031660029004801561166e5780601f1061164c57610100808354040283529182019161166e565b820191906000526020600020905b81548152906001019060200180831161165a575b50509150506040516020818303038152906040526040518082805190602001908083835b6020831015156116b75780518252602082019150602081019050602083039250611692565b6001836020036101000a03801982511681845116808217855250505050505090500191505060405180910390206000191614156117145761170d6001600083815260200190815260200160002060000154611b29565b9150611726565b808060010191505061151d565b600091505b50919050565b60005481565b6001602052806000526040600020600091509050806000015490806001018054600181600116156101000203166002900480601f0160208091040260200160405190810160405280929190818152602001828054600181600116156101000203166002900480156117e45780601f106117b9576101008083540402835291602001916117e4565b820191906000526020600020905b8154815290600101906020018083116117c757829003601f168201915b5050505050908060020160009054906101000a900460ff1690806003015490806004015490806005015490806006018054600181600116156101000203166002900480601f0160208091040260200160405190810160405280929190818152602001828054600181600116156101000203166002900480156118a75780601f1061187c576101008083540402835291602001916118a7565b820191906000526020600020905b81548152906001019060200180831161188a57829003601f168201915b5050505050905087565b60006060600080600080606060008090505b600054811015611ad357886040516020018082805190602001908083835b60208310151561190657805182526020820191506020810190506020830392506118e1565b6001836020036101000a0380198251168184511680821785525050505050509050019150506040516020818303038152906040526040518082805190602001908083835b60208310151561196f578051825260208201915060208101905060208303925061194a565b6001836020036101000a038019825116818451168082178552505050505050905001915050604051809103902060001916600160008381526020019081526020016000206001016040516020018082805460018160011615610100020316600290048015611a145780601f106119f2576101008083540402835291820191611a14565b820191906000526020600020905b815481529060010190602001808311611a00575b50509150506040516020818303038152906040526040518082805190602001908083835b602083101515611a5d5780518252602082019150602081019050602083039250611a38565b6001836020036101000a0380198251168184511680821785525050505050509050019150506040518091039020600019161415611ac657611ab36001600083815260200190815260200160002060000154610a67565b9750975097509750975097509750611b1d565b80806001019150506118c3565b600060056000806000849450602060405190810160405280600081525093929190829250819150809050602060405190810160405280600081525097509750975097509750975097505b50919395979092949650565b6000805482101515611b3e5760009050611ba1565b60016000838152602001908152602001600020600301546001600084815260200190815260200160002060040154101515611b7c5760009050611ba1565b6001806000848152602001908152602001600020600401600082825401925050819055505b919050565b6000805482101515611bbb5760009050611c0b565b6001806000848152602001908152602001600020600401541015611be25760009050611c0b565b600180600084815260200190815260200160002060040160008282540392505081905550600190505b919050565b600081600160008581526020019081526020016000206006019080519060200190611c3c929190611cc7565b506001905092915050565b828054600181600116156101000203166002900490600052602060002090601f016020900481019282601f10611c8857805160ff1916838001178555611cb6565b82800160010185558215611cb6579182015b82811115611cb5578251825591602001919060010190611c9a565b5b509050611cc39190611d47565b5090565b828054600181600116156101000203166002900490600052602060002090601f016020900481019282601f10611d0857805160ff1916838001178555611d36565b82800160010185558215611d36579182015b82811115611d35578251825591602001919060010190611d1a565b5b509050611d439190611d47565b5090565b611d6991905b80821115611d65576000816000905550600101611d4d565b5090565b905600a165627a7a72305820aa0f4bc474805d00d91783fd707dd6fc4b232da678d8f53a03be1a866ca7790e0029",
  "source": "pragma solidity ^0.4.24;\n\ncontract SimpleStorage {\n\n  //\n  enum books_kind { Literature, Life, Psychology, History,Science , Unknow}\n\n  uint public books_count=0;\n\n  //\n  struct books {\n    uint id;            //\n    string name;        //\n    books_kind kind;    //\n    uint count;         //\n    uint remain_count; //\n    uint floor_number;  //\n    string bookshelf_num; //\n  }\n\n  mapping(uint=> books) public books_list;\n\n  //\n  function add_books (string Name, books_kind Kind, uint Count, uint Floor_number,string Bookshelf_num) public returns (bool){\n    uint i = 0;\n    for(i = 0;i < books_count ; i++){\n      if(keccak256(abi.encodePacked(books_list[i].name)) == keccak256(abi.encodePacked(Name)))\n      return false;\n    }\n    books_list[books_count] = books(books_count, Name, Kind, Count,Count, Floor_number,Bookshelf_num);\n    books_count++;\n    return true;\n  }\n\n  //\n  function add_id_count (uint id, uint num) public returns (bool){\n    if(id >= books_count){\n      return false;\n    }\n    books_list[id].count += num;\n    books_list[id].remain_count += num;\n    return true;\n  }\n\n  //\n  function add_name_count (string Name, uint num) public returns (bool){\n    for(uint i = 0; i < books_count ; i++){\n      if(keccak256(abi.encodePacked(books_list[i].name)) == keccak256(abi.encodePacked(Name))){\n        add_id_count(books_list[i].id, num);\n        return true;\n      }\n    }\n    return false;\n  }\n\n  //\n  function move_id_floor (uint id, uint floor) public returns (bool){\n    if(floor>5||floor<0){\n      return false;\n    }\n    books_list[id].floor_number = floor;\n    return true;\n  }\n\n  //\n  function move_id_bookshelf (uint id, string Bookshelf_num) public returns (bool){\n    books_list[id].bookshelf_num = Bookshelf_num;\n    return true;\n  }\n\n  //\n  function lend_id (uint id) public returns (bool){\n    if(id >= books_count){\n      return false;\n    }\n    if(books_list[id].remain_count<1){\n      return false;\n    }\n    books_list[id].remain_count -= 1;\n    return true;\n  }\n\n  //\n  function lend_name (string Name) public returns (bool){\n    for(uint i = 0; i < books_count ; i++){\n      if(keccak256(abi.encodePacked(books_list[i].name)) == keccak256(abi.encodePacked(Name))){\n        return lend_id(books_list[i].id);\n      }\n    }\n    return false;\n  }\n\n  //\n  function return_id(uint id) public returns (bool){\n    if(id >= books_count){\n      return false;\n    }\n    if(books_list[id].remain_count>=books_list[id].count){\n      return false;\n    }\n    books_list[id].remain_count += 1;\n  }\n\n  function return_name(string Name) public returns (bool){\n    for(uint i = 0; i < books_count ; i++){\n      if(keccak256(abi.encodePacked(books_list[i].name)) == keccak256(abi.encodePacked(Name))){\n        return return_id(books_list[i].id);\n      }\n    }\n    return false;\n  }\n\n  //\n  function find_id (uint id) public view returns (uint, string, books_kind, uint,uint, uint,string) {\n    if(id >= books_count){\n      return (0, \"\", books_kind.Unknow,0,0,0,\"\");\n    }\n    return (books_list[id].id, books_list[id].name, books_list[id].kind, books_list[id].count,books_list[id].remain_count, books_list[id].floor_number,books_list[id].bookshelf_num);\n  }\n  \n  function find_name(string Name) public view returns (uint, string, books_kind, uint,uint, uint,string){\n    for(uint i = 0; i < books_count ; i++){\n      if(keccak256(abi.encodePacked(books_list[i].name)) == keccak256(abi.encodePacked(Name))){\n        return find_id(books_list[i].id);\n      }\n    }\n    return (0, \"\", books_kind.Unknow,0,0,0,\"\");\n  }\n\n  //id\n  function find_id_num (uint id,uint book_num) public view returns(bool,bool,address){\n    if(id >= books_count){\n      return (false,false,address(0));\n    }\n    if(book_num>=books_list[id].count){\n      return (false,false,address(0));\n    }\n    return (true,true,address(0));\n  }\n\n  //\n  function All_books_num () public view returns (uint) {\n    return books_count;\n  }\n\n\n  uint storedData;\n  function set(uint x) public {\n    storedData = x;\n  }\n\n  function get() public view returns (uint) {\n    return storedData;\n  }\n\n}\n",
  "sourcePath": "/Users/zhujunkai/Desktop/Demo2/contracts/SimpleStorage.sol",
  "compiler": {
    "name": "solc",
    "version": "0.4.24+commit.e67f0147.Emscripten.clang"
  },
  "schemaVersion": "2.0.1",
  "updatedAt": "2019-01-14T04:38:58.143Z"
}