{
  "contractName": "SimpleStorage",
  "abi": [
    {
      "constant": true,
      "inputs": [],
      "name": "books_count",
      "outputs": [
        {
          "name": "",
          "type": "uint256"
        }
      ],
      "payable": false,
      "stateMutability": "view",
      "type": "function"
    },
    {
      "constant": true,
      "inputs": [
        {
          "name": "",
          "type": "uint256"
        }
      ],
      "name": "books_list",
      "outputs": [
        {
          "name": "id",
          "type": "uint256"
        },
        {
          "name": "name",
          "type": "string"
        },
        {
          "name": "kind",
          "type": "uint8"
        },
        {
          "name": "count",
          "type": "uint256"
        },
        {
          "name": "remain_count",
          "type": "uint256"
        },
        {
          "name": "floor_number",
          "type": "uint256"
        },
        {
          "name": "bookshelf_num",
          "type": "string"
        }
      ],
      "payable": false,
      "stateMutability": "view",
      "type": "function"
    },
    {
      "constant": false,
      "inputs": [
        {
          "name": "Name",
          "type": "string"
        },
        {
          "name": "Kind",
          "type": "uint8"
        },
        {
          "name": "Count",
          "type": "uint256"
        },
        {
          "name": "Floor_number",
          "type": "uint256"
        },
        {
          "name": "Bookshelf_num",
          "type": "string"
        }
      ],
      "name": "add_books",
      "outputs": [
        {
          "name": "",
          "type": "bool"
        }
      ],
      "payable": false,
      "stateMutability": "nonpayable",
      "type": "function"
    },
    {
      "constant": false,
      "inputs": [
        {
          "name": "id",
          "type": "uint256"
        },
        {
          "name": "num",
          "type": "uint256"
        }
      ],
      "name": "add_id_count",
      "outputs": [
        {
          "name": "",
          "type": "bool"
        }
      ],
      "payable": false,
      "stateMutability": "nonpayable",
      "type": "function"
    },
    {
      "constant": false,
      "inputs": [
        {
          "name": "Name",
          "type": "string"
        },
        {
          "name": "num",
          "type": "uint256"
        }
      ],
      "name": "add_name_count",
      "outputs": [
        {
          "name": "",
          "type": "bool"
        }
      ],
      "payable": false,
      "stateMutability": "nonpayable",
      "type": "function"
    },
    {
      "constant": false,
      "inputs": [
        {
          "name": "id",
          "type": "uint256"
        },
        {
          "name": "floor",
          "type": "uint256"
        }
      ],
      "name": "move_id_floor",
      "outputs": [
        {
          "name": "",
          "type": "bool"
        }
      ],
      "payable": false,
      "stateMutability": "nonpayable",
      "type": "function"
    },
    {
      "constant": false,
      "inputs": [
        {
          "name": "id",
          "type": "uint256"
        },
        {
          "name": "Bookshelf_num",
          "type": "string"
        }
      ],
      "name": "move_id_bookshelf",
      "outputs": [
        {
          "name": "",
          "type": "bool"
        }
      ],
      "payable": false,
      "stateMutability": "nonpayable",
      "type": "function"
    },
    {
      "constant": false,
      "inputs": [
        {
          "name": "id",
          "type": "uint256"
        }
      ],
      "name": "lend_id",
      "outputs": [
        {
          "name": "",
          "type": "bool"
        }
      ],
      "payable": false,
      "stateMutability": "nonpayable",
      "type": "function"
    },
    {
      "constant": false,
      "inputs": [
        {
          "name": "Name",
          "type": "string"
        }
      ],
      "name": "lend_name",
      "outputs": [
        {
          "name": "",
          "type": "bool"
        }
      ],
      "payable": false,
      "stateMutability": "nonpayable",
      "type": "function"
    },
    {
      "constant": false,
      "inputs": [
        {
          "name": "id",
          "type": "uint256"
        }
      ],
      "name": "return_id",
      "outputs": [
        {
          "name": "",
          "type": "bool"
        }
      ],
      "payable": false,
      "stateMutability": "nonpayable",
      "type": "function"
    },
    {
      "constant": false,
      "inputs": [
        {
          "name": "Name",
          "type": "string"
        }
      ],
      "name": "return_name",
      "outputs": [
        {
          "name": "",
          "type": "bool"
        }
      ],
      "payable": false,
      "stateMutability": "nonpayable",
      "type": "function"
    },
    {
      "constant": true,
      "inputs": [
        {
          "name": "id",
          "type": "uint256"
        }
      ],
      "name": "find_id",
      "outputs": [
        {
          "name": "",
          "type": "uint256"
        },
        {
          "name": "",
          "type": "string"
        },
        {
          "name": "",
          "type": "uint8"
        },
        {
          "name": "",
          "type": "uint256"
        },
        {
          "name": "",
          "type": "uint256"
        },
        {
          "name": "",
          "type": "uint256"
        },
        {
          "name": "",
          "type": "string"
        }
      ],
      "payable": false,
      "stateMutability": "view",
      "type": "function"
    },
    {
      "constant": true,
      "inputs": [
        {
          "name": "id",
          "type": "uint256"
        },
        {
          "name": "book_num",
          "type": "uint256"
        }
      ],
      "name": "find_id_num",
      "outputs": [
        {
          "name": "",
          "type": "bool"
        },
        {
          "name": "",
          "type": "bool"
        },
        {
          "name": "",
          "type": "address"
        }
      ],
      "payable": false,
      "stateMutability": "view",
      "type": "function"
    },
    {
      "constant": true,
      "inputs": [],
      "name": "All_books_num",
      "outputs": [
        {
          "name": "",
          "type": "uint256"
        }
      ],
      "payable": false,
      "stateMutability": "view",
      "type": "function"
    },
    {
      "constant": false,
      "inputs": [
        {
          "name": "x",
          "type": "uint256"
        }
      ],
      "name": "set",
      "outputs": [],
      "payable": false,
      "stateMutability": "nonpayable",
      "type": "function"
    },
    {
      "constant": true,
      "inputs": [],
      "name": "get",
      "outputs": [
        {
          "name": "",
          "type": "uint256"
        }
      ],
      "payable": false,
      "stateMutability": "view",
      "type": "function"
    }
  ],
  "bytecode": "0x60806040526000805534801561001457600080fd5b50611d41806100246000396000f3006080604052600436106100e6576000357c0100000000000000000000000000000000000000000000000000000000900463ffffffff168063042febe6146100eb5780630ff9964114610116578063292fafbe146102595780632d10b9a4146102e65780632d321e2f146103355780633342233f146103b65780633dd360bc14610441578063539212b61461052957806360fe47b1146105785780636d4ce63c146105a5578063871a6662146105d057806397f0e33414610651578063ba6e9e981461067c578063d58a577a146107bf578063eef362ce14610804578063fffdeec514610849575b600080fd5b3480156100f757600080fd5b506101006108d4565b6040518082815260200191505060405180910390f35b34801561012257600080fd5b50610141600480360381019080803590602001909291905050506108dd565b604051808881526020018060200187600581111561015b57fe5b60ff16815260200186815260200185815260200184815260200180602001838103835289818151815260200191508051906020019080838360005b838110156101b1578082015181840152602081019050610196565b50505050905090810190601f1680156101de5780820380516001836020036101000a031916815260200191505b50838103825284818151815260200191508051906020019080838360005b838110156102175780820151818401526020810190506101fc565b50505050905090810190601f1680156102445780820380516001836020036101000a031916815260200191505b50995050505050505050505060405180910390f35b34801561026557600080fd5b5061028e6004803603810190808035906020019092919080359060200190929190505050610b40565b6040518084151515158152602001831515151581526020018273ffffffffffffffffffffffffffffffffffffffff1673ffffffffffffffffffffffffffffffffffffffff168152602001935050505060405180910390f35b3480156102f257600080fd5b5061031b6004803603810190808035906020019092919080359060200190929190505050610c32565b604051808215151515815260200191505060405180910390f35b34801561034157600080fd5b5061039c600480360381019080803590602001908201803590602001908080601f0160208091040260200160405190810160405280939291908181526020018383808284378201915050505050509192919290505050610d24565b604051808215151515815260200191505060405180910390f35b3480156103c257600080fd5b50610427600480360381019080803590602001908201803590602001908080601f016020809104026020016040519081016040528093929190818152602001838380828437820191505050505050919291929080359060200190929190505050610f3b565b604051808215151515815260200191505060405180910390f35b34801561044d57600080fd5b5061050f600480360381019080803590602001908201803590602001908080601f0160208091040260200160405190810160405280939291908181526020018383808284378201915050505050509192919290803560ff1690602001909291908035906020019092919080359060200190929190803590602001908201803590602001908080601f0160208091040260200160405190810160405280939291908181526020018383808284378201915050505050509192919290505050611157565b604051808215151515815260200191505060405180910390f35b34801561053557600080fd5b5061055e60048036038101908080359060200190929190803590602001909291905050506114a8565b604051808215151515815260200191505060405180910390f35b34801561058457600080fd5b506105a3600480360381019080803590602001909291905050506114ed565b005b3480156105b157600080fd5b506105ba6114f7565b6040518082815260200191505060405180910390f35b3480156105dc57600080fd5b50610637600480360381019080803590602001908201803590602001908080601f0160208091040260200160405190810160405280939291908181526020018383808284378201915050505050509192919290505050611501565b604051808215151515815260200191505060405180910390f35b34801561065d57600080fd5b50610666611718565b6040518082815260200191505060405180910390f35b34801561068857600080fd5b506106a76004803603810190808035906020019092919050505061171e565b60405180888152602001806020018760058111156106c157fe5b60ff16815260200186815260200185815260200184815260200180602001838103835289818151815260200191508051906020019080838360005b838110156107175780820151818401526020810190506106fc565b50505050905090810190601f1680156107445780820380516001836020036101000a031916815260200191505b50838103825284818151815260200191508051906020019080838360005b8381101561077d578082015181840152602081019050610762565b50505050905090810190601f1680156107aa5780820380516001836020036101000a031916815260200191505b50995050505050505050505060405180910390f35b3480156107cb57600080fd5b506107ea6004803603810190808035906020019092919050505061189d565b604051808215151515815260200191505060405180910390f35b34801561081057600080fd5b5061082f60048036038101908080359060200190929190505050611a2e565b604051808215151515815260200191505060405180910390f35b34801561085557600080fd5b506108ba60048036038101908080359060200190929190803590602001908201803590602001908080601f0160208091040260200160405190810160405280939291908181526020018383808284378201915050505050509192919290505050611bb9565b604051808215151515815260200191505060405180910390f35b60008054905090565b600060606000806000806060600054881015156109425760006005600080600084945060206040519081016040528060008152509392919082925081915080905060206040519081016040528060008152509650965096509650965096509650610b35565b6001600089815260200190815260200160002060000154600160008a8152602001908152602001600020600101600160008b815260200190815260200160002060020160009054906101000a900460ff16600160008c815260200190815260200160002060030154600160008d815260200190815260200160002060040154600160008e815260200190815260200160002060050154600160008f8152602001908152602001600020600601858054600181600116156101000203166002900480601f016020809104026020016040519081016040528092919081815260200182805460018160011615610100020316600290048015610a835780601f10610a5857610100808354040283529160200191610a83565b820191906000526020600020905b815481529060010190602001808311610a6657829003601f168201915b50505050509550808054600181600116156101000203166002900480601f016020809104026020016040519081016040528092919081815260200182805460018160011615610100020316600290048015610b1f5780601f10610af457610100808354040283529160200191610b1f565b820191906000526020600020905b815481529060010190602001808311610b0257829003601f168201915b5050505050905096509650965096509650965096505b919395979092949650565b6000806000805485101515610b5f576000806000925092509250610c2b565b600160008681526020019081526020016000206003015484101515610b8e576000806000925092509250610c2b565b60016000868152602001908152602001600020600701600085815260200190815260200160002060009054906101000a900460ff161515610bd9576001600080925092509250610c2b565b60018060016000888152602001908152602001600020600801600087815260200190815260200160002060009054906101000a900473ffffffffffffffffffffffffffffffffffffffff169250925092505b9250925092565b60008060005484101515610c495760009150610d1d565b600160008581526020019081526020016000206003015490505b82600160008681526020019081526020016000206003015401811015610cd057600060016000868152602001908152602001600020600701600083815260200190815260200160002060006101000a81548160ff0219169083151502179055508080600101915050610c63565b826001600086815260200190815260200160002060030160008282540192505081905550826001600086815260200190815260200160002060040160008282540192505081905550600191505b5092915050565b600080600090505b600054811015610f3057826040516020018082805190602001908083835b602083101515610d6f5780518252602082019150602081019050602083039250610d4a565b6001836020036101000a0380198251168184511680821785525050505050509050019150506040516020818303038152906040526040518082805190602001908083835b602083101515610dd85780518252602082019150602081019050602083039250610db3565b6001836020036101000a038019825116818451168082178552505050505050905001915050604051809103902060001916600160008381526020019081526020016000206001016040516020018082805460018160011615610100020316600290048015610e7d5780601f10610e5b576101008083540402835291820191610e7d565b820191906000526020600020905b815481529060010190602001808311610e69575b50509150506040516020818303038152906040526040518082805190602001908083835b602083101515610ec65780518252602082019150602081019050602083039250610ea1565b6001836020036101000a0380198251168184511680821785525050505050509050019150506040518091039020600019161415610f2357610f1c6001600083815260200190815260200160002060000154611a2e565b9150610f35565b8080600101915050610d2c565b600091505b50919050565b600080600090505b60005481101561114b57836040516020018082805190602001908083835b602083101515610f865780518252602082019150602081019050602083039250610f61565b6001836020036101000a0380198251168184511680821785525050505050509050019150506040516020818303038152906040526040518082805190602001908083835b602083101515610fef5780518252602082019150602081019050602083039250610fca565b6001836020036101000a0380198251168184511680821785525050505050509050019150506040518091039020600019166001600083815260200190815260200160002060010160405160200180828054600181600116156101000203166002900480156110945780601f10611072576101008083540402835291820191611094565b820191906000526020600020905b815481529060010190602001808311611080575b50509150506040516020818303038152906040526040518082805190602001908083835b6020831015156110dd57805182526020820191506020810190506020830392506110b8565b6001836020036101000a038019825116818451168082178552505050505050905001915050604051809103902060001916141561113e57611134600160008381526020019081526020016000206000015484610c32565b5060019150611150565b8080600101915050610f43565b600091505b5092915050565b60008060009050600090505b60005481101561134a57866040516020018082805190602001908083835b6020831015156111a65780518252602082019150602081019050602083039250611181565b6001836020036101000a0380198251168184511680821785525050505050509050019150506040516020818303038152906040526040518082805190602001908083835b60208310151561120f57805182526020820191506020810190506020830392506111ea565b6001836020036101000a0380198251168184511680821785525050505050509050019150506040518091039020600019166001600083815260200190815260200160002060010160405160200180828054600181600116156101000203166002900480156112b45780601f106112925761010080835404028352918201916112b4565b820191906000526020600020905b8154815290600101906020018083116112a0575b50509150506040516020818303038152906040526040518082805190602001908083835b6020831015156112fd57805182526020820191506020810190506020830392506112d8565b6001836020036101000a038019825116818451168082178552505050505050905001915050604051809103902060001916141561133d576000915061149e565b8080600101915050611163565b60e060405190810160405280600054815260200188815260200187600581111561137057fe5b81526020018681526020018681526020018581526020018481525060016000805481526020019081526020016000206000820151816000015560208201518160010190805190602001906113c5929190611bf0565b5060408201518160020160006101000a81548160ff021916908360058111156113ea57fe5b0217905550606082015181600301556080820151816004015560a0820151816005015560c0820151816006019080519060200190611429929190611bf0565b50905050600090505b848110156114885760006001600080548152602001908152602001600020600701600083815260200190815260200160002060006101000a81548160ff0219169083151502179055508080600101915050611432565b6000808154809291906001019190505550600191505b5095945050505050565b600060058211806114b95750600082105b156114c757600090506114e7565b816001600085815260200190815260200160002060050181905550600190505b92915050565b8060028190555050565b6000600254905090565b600080600090505b60005481101561170d57826040516020018082805190602001908083835b60208310151561154c5780518252602082019150602081019050602083039250611527565b6001836020036101000a0380198251168184511680821785525050505050509050019150506040516020818303038152906040526040518082805190602001908083835b6020831015156115b55780518252602082019150602081019050602083039250611590565b6001836020036101000a03801982511681845116808217855250505050505090500191505060405180910390206000191660016000838152602001908152602001600020600101604051602001808280546001816001161561010002031660029004801561165a5780601f1061163857610100808354040283529182019161165a565b820191906000526020600020905b815481529060010190602001808311611646575b50509150506040516020818303038152906040526040518082805190602001908083835b6020831015156116a3578051825260208201915060208101905060208303925061167e565b6001836020036101000a0380198251168184511680821785525050505050509050019150506040518091039020600019161415611700576116f9600160008381526020019081526020016000206000015461189d565b9150611712565b8080600101915050611509565b600091505b50919050565b60005481565b6001602052806000526040600020600091509050806000015490806001018054600181600116156101000203166002900480601f0160208091040260200160405190810160405280929190818152602001828054600181600116156101000203166002900480156117d05780601f106117a5576101008083540402835291602001916117d0565b820191906000526020600020905b8154815290600101906020018083116117b357829003601f168201915b5050505050908060020160009054906101000a900460ff1690806003015490806004015490806005015490806006018054600181600116156101000203166002900480601f0160208091040260200160405190810160405280929190818152602001828054600181600116156101000203166002900480156118935780601f1061186857610100808354040283529160200191611893565b820191906000526020600020905b81548152906001019060200180831161187657829003601f168201915b5050505050905087565b600080600080600054851015156118b75760009350611a26565b6000925060009150600090505b60016000868152602001908152602001600020600301548110156119b15760016000868152602001908152602001600020600701600082815260200190815260200160002060009054906101000a900460ff16156119a4573373ffffffffffffffffffffffffffffffffffffffff1660016000878152602001908152602001600020600801600083815260200190815260200160002060009054906101000a900473ffffffffffffffffffffffffffffffffffffffff1673ffffffffffffffffffffffffffffffffffffffff1614156119a357809250600191506119b1565b5b80806001019150506118c4565b8115156119c15760009350611a26565b600060016000878152602001908152602001600020600701600085815260200190815260200160002060006101000a81548160ff0219169083151502179055506001806000878152602001908152602001600020600401600082825401925050819055505b505050919050565b6000806000805484101515611a465760009250611bb2565b6001806000868152602001908152602001600020600401541015611a6d5760009250611bb2565b60009150600090505b6001600085815260200190815260200160002060030154811015611ae45760016000858152602001908152602001600020600701600082815260200190815260200160002060009054906101000a900460ff161515611ad757809150611ae4565b8080600101915050611a76565b6001806000868152602001908152602001600020600701600084815260200190815260200160002060006101000a81548160ff0219169083151502179055503360016000868152602001908152602001600020600801600084815260200190815260200160002060006101000a81548173ffffffffffffffffffffffffffffffffffffffff021916908373ffffffffffffffffffffffffffffffffffffffff160217905550600180600086815260200190815260200160002060040160008282540392505081905550600192505b5050919050565b600081600160008581526020019081526020016000206006019080519060200190611be5929190611c70565b506001905092915050565b828054600181600116156101000203166002900490600052602060002090601f016020900481019282601f10611c3157805160ff1916838001178555611c5f565b82800160010185558215611c5f579182015b82811115611c5e578251825591602001919060010190611c43565b5b509050611c6c9190611cf0565b5090565b828054600181600116156101000203166002900490600052602060002090601f016020900481019282601f10611cb157805160ff1916838001178555611cdf565b82800160010185558215611cdf579182015b82811115611cde578251825591602001919060010190611cc3565b5b509050611cec9190611cf0565b5090565b611d1291905b80821115611d0e576000816000905550600101611cf6565b5090565b905600a165627a7a72305820b5f4b6a9bc6649b5de02bb48d231f24a3cd6c873428ac753bd7efad351522d610029",
  "source": "pragma solidity ^0.4.24;\n\ncontract SimpleStorage {\n\n  //\n  enum books_kind { Literature, Life, Psychology, History,Science , Unknow}\n\n  uint public books_count=0;\n\n  //\n  struct books {\n    uint id;            //\n    string name;        //\n    books_kind kind;    //\n    uint count;         //\n    uint remain_count; //\n    uint floor_number;  //\n    string bookshelf_num; //\n    mapping (uint => bool) is_lent; //\n    mapping (uint => address) owner_adr;//address\n  }\n\n  mapping(uint=> books) public books_list;\n\n  //\n  function add_books (string Name, books_kind Kind, uint Count, uint Floor_number,string Bookshelf_num) public returns (bool){\n    //\n    uint i = 0;\n    for(i = 0;i < books_count ; i++){\n      if(keccak256(abi.encodePacked(books_list[i].name)) == keccak256(abi.encodePacked(Name)))\n      return false;\n    }\n    //\n    books_list[books_count] = books(books_count, Name, Kind, Count,Count, Floor_number,Bookshelf_num);\n    for(i = 0; i < Count ; i++){\n      books_list[books_count].is_lent[i]=false;\n    }\n    books_count++;\n    return true;\n  }\n\n  //\n  function add_id_count (uint id, uint num) public returns (bool){\n    if(id >= books_count){\n      return false;\n    }\n    for(uint i = books_list[id].count; i < books_list[id].count+num ; i++){\n      books_list[id].is_lent[i]=false;\n    }\n    books_list[id].count += num;\n    books_list[id].remain_count += num;\n    return true;\n  }\n\n  //\n  function add_name_count (string Name, uint num) public returns (bool){\n    for(uint i = 0; i < books_count ; i++){\n      if(keccak256(abi.encodePacked(books_list[i].name)) == keccak256(abi.encodePacked(Name))){\n        add_id_count(books_list[i].id, num);\n        return true;\n      }\n    }\n    return false;\n  }\n\n  //\n  function move_id_floor (uint id, uint floor) public returns (bool){\n    if(floor>5||floor<0){\n      return false;\n    }\n    books_list[id].floor_number = floor;\n    return true;\n  }\n\n  //\n  function move_id_bookshelf (uint id, string Bookshelf_num) public returns (bool){\n    books_list[id].bookshelf_num = Bookshelf_num;\n    return true;\n  }\n\n  //\n  function lend_id (uint id) public returns (bool){\n    if(id >= books_count){\n      return false;\n    }\n    if(books_list[id].remain_count<1){\n      return false;\n    }\n    uint index=0;\n    for(uint i = 0; i < books_list[id].count ; i++){\n      if(!books_list[id].is_lent[i]){\n        index=i;\n        break;\n      }\n    }\n    books_list[id].is_lent[index]=true;\n    books_list[id].owner_adr[index]=msg.sender;\n    books_list[id].remain_count -= 1;\n    return true;\n  }\n\n  //\n  function lend_name (string Name) public returns (bool){\n    for(uint i = 0; i < books_count ; i++){\n      if(keccak256(abi.encodePacked(books_list[i].name)) == keccak256(abi.encodePacked(Name))){\n        return lend_id(books_list[i].id);\n      }\n    }\n    return false;\n  }\n\n  //\n  function return_id(uint id) public returns (bool){\n    if(id >= books_count){\n      return false;\n    }\n    uint index=0;\n    bool temp=false;\n    for(uint i = 0; i < books_list[id].count ; i++){\n      if(books_list[id].is_lent[i]){\n        if(books_list[id].owner_adr[i]==msg.sender){\n          index=i;\n          temp=true;\n          break;\n        }\n      }\n    }\n    if(!temp){\n      return false;\n    }\n    books_list[id].is_lent[index]=false;\n    books_list[id].remain_count += 1;\n  }\n\n  function return_name(string Name) public returns (bool){\n    for(uint i = 0; i < books_count ; i++){\n      if(keccak256(abi.encodePacked(books_list[i].name)) == keccak256(abi.encodePacked(Name))){\n        return return_id(books_list[i].id);\n      }\n    }\n    return false;\n  }\n\n  //\n  function find_id (uint id) public view returns (uint, string, books_kind, uint,uint, uint,string) {\n    if(id >= books_count){\n      return (0, \"\", books_kind.Unknow,0,0,0,\"\");\n    }\n    return (books_list[id].id, books_list[id].name, books_list[id].kind, books_list[id].count,books_list[id].remain_count, books_list[id].floor_number,books_list[id].bookshelf_num);\n  }\n\n  //id\n  function find_id_num (uint id,uint book_num) public view returns(bool,bool,address){\n    if(id >= books_count){\n      return (false,false,address(0));\n    }\n    if(book_num>=books_list[id].count){\n      return (false,false,address(0));\n    }\n    if(!books_list[id].is_lent[book_num]){\n      return (true,false,address(0));\n    }\n    return (true,true,books_list[id].owner_adr[book_num]);\n  }\n\n  //\n  function All_books_num () public view returns (uint) {\n    return books_count;\n  }\n\n\n  uint storedData;\n  function set(uint x) public {\n    storedData = x;\n  }\n\n  function get() public view returns (uint) {\n    return storedData;\n  }\n\n}\n",
  "sourcePath": "/Users/zhujunkai/Desktop/Demo2/contracts/SimpleStorage.sol",
  "compiler": {
    "name": "solc",
    "version": "0.4.24+commit.e67f0147.Emscripten.clang"
  },
  "schemaVersion": "2.0.1",
  "updatedAt": "2018-12-31T09:52:26.691Z"
}